{
  "_format": "hh-sol-artifact-1",
  "contractName": "EscrowList",
  "sourceName": "contracts/EscrowList.sol",
  "abi": [
    {
      "anonymous": false,
      "inputs": [
        {
          "indexed": false,
          "internalType": "uint256",
          "name": "",
          "type": "uint256"
        }
      ],
      "name": "EscrowApproved",
      "type": "event"
    },
    {
      "inputs": [
        {
          "internalType": "uint256",
          "name": "_id",
          "type": "uint256"
        }
      ],
      "name": "approveEscrow",
      "outputs": [],
      "stateMutability": "nonpayable",
      "type": "function"
    },
    {
      "inputs": [
        {
          "internalType": "uint256",
          "name": "_id",
          "type": "uint256"
        }
      ],
      "name": "getEscrow",
      "outputs": [
        {
          "components": [
            {
              "internalType": "uint256",
              "name": "id",
              "type": "uint256"
            },
            {
              "internalType": "address",
              "name": "depositor",
              "type": "address"
            },
            {
              "internalType": "address",
              "name": "mediater",
              "type": "address"
            },
            {
              "internalType": "address",
              "name": "beneficiary",
              "type": "address"
            },
            {
              "internalType": "uint256",
              "name": "amount",
              "type": "uint256"
            },
            {
              "internalType": "uint256",
              "name": "timestamp",
              "type": "uint256"
            },
            {
              "internalType": "bool",
              "name": "isApproved",
              "type": "bool"
            }
          ],
          "internalType": "struct EscrowList.Transaction",
          "name": "temp",
          "type": "tuple"
        }
      ],
      "stateMutability": "view",
      "type": "function"
    },
    {
      "inputs": [],
      "name": "getListEscrows",
      "outputs": [
        {
          "components": [
            {
              "internalType": "uint256",
              "name": "id",
              "type": "uint256"
            },
            {
              "internalType": "address",
              "name": "depositor",
              "type": "address"
            },
            {
              "internalType": "address",
              "name": "mediater",
              "type": "address"
            },
            {
              "internalType": "address",
              "name": "beneficiary",
              "type": "address"
            },
            {
              "internalType": "uint256",
              "name": "amount",
              "type": "uint256"
            },
            {
              "internalType": "uint256",
              "name": "timestamp",
              "type": "uint256"
            },
            {
              "internalType": "bool",
              "name": "isApproved",
              "type": "bool"
            }
          ],
          "internalType": "struct EscrowList.Transaction[]",
          "name": "",
          "type": "tuple[]"
        }
      ],
      "stateMutability": "view",
      "type": "function"
    },
    {
      "inputs": [],
      "name": "getListEscrowsToApprove",
      "outputs": [
        {
          "components": [
            {
              "internalType": "uint256",
              "name": "id",
              "type": "uint256"
            },
            {
              "internalType": "address",
              "name": "depositor",
              "type": "address"
            },
            {
              "internalType": "address",
              "name": "mediater",
              "type": "address"
            },
            {
              "internalType": "address",
              "name": "beneficiary",
              "type": "address"
            },
            {
              "internalType": "uint256",
              "name": "amount",
              "type": "uint256"
            },
            {
              "internalType": "uint256",
              "name": "timestamp",
              "type": "uint256"
            },
            {
              "internalType": "bool",
              "name": "isApproved",
              "type": "bool"
            }
          ],
          "internalType": "struct EscrowList.Transaction[]",
          "name": "",
          "type": "tuple[]"
        }
      ],
      "stateMutability": "view",
      "type": "function"
    },
    {
      "inputs": [
        {
          "internalType": "address",
          "name": "_mediater",
          "type": "address"
        },
        {
          "internalType": "address",
          "name": "_beneficiary",
          "type": "address"
        }
      ],
      "name": "newEscrow",
      "outputs": [],
      "stateMutability": "payable",
      "type": "function"
    },
    {
      "inputs": [
        {
          "internalType": "uint256",
          "name": "",
          "type": "uint256"
        }
      ],
      "name": "transactions",
      "outputs": [
        {
          "internalType": "uint256",
          "name": "id",
          "type": "uint256"
        },
        {
          "internalType": "address",
          "name": "depositor",
          "type": "address"
        },
        {
          "internalType": "address",
          "name": "mediater",
          "type": "address"
        },
        {
          "internalType": "address",
          "name": "beneficiary",
          "type": "address"
        },
        {
          "internalType": "uint256",
          "name": "amount",
          "type": "uint256"
        },
        {
          "internalType": "uint256",
          "name": "timestamp",
          "type": "uint256"
        },
        {
          "internalType": "bool",
          "name": "isApproved",
          "type": "bool"
        }
      ],
      "stateMutability": "view",
      "type": "function"
    }
  ],
  "bytecode": "0x608060405234801561001057600080fd5b5061179f806100206000396000f3fe6080604052600436106100555760003560e01c806303fce7ef1461005a5780637d19e596146100835780639ace38c2146100c0578063aa2fe23314610103578063b5e912561461012e578063d4eac44614610159575b600080fd5b34801561006657600080fd5b50610081600480360381019061007c91906110ce565b610175565b005b34801561008f57600080fd5b506100aa60048036038101906100a591906110ce565b61052b565b6040516100b791906111f4565b60405180910390f35b3480156100cc57600080fd5b506100e760048036038101906100e291906110ce565b6106f3565b6040516100fa979695949392919061123c565b60405180910390f35b34801561010f57600080fd5b506101186107b2565b60405161012591906113e8565b60405180910390f35b34801561013a57600080fd5b50610143610af5565b60405161015091906113e8565b60405180910390f35b610173600480360381019061016e9190611436565b610e38565b005b61017d611012565b60005b6000805490508110156103375782600082815481106101a2576101a1611476565b5b9060005260206000209060070201600001540361032457600081815481106101cd576101cc611476565b5b90600052602060002090600702016040518060e0016040529081600082015481526020016001820160009054906101000a900473ffffffffffffffffffffffffffffffffffffffff1673ffffffffffffffffffffffffffffffffffffffff1673ffffffffffffffffffffffffffffffffffffffff1681526020016002820160009054906101000a900473ffffffffffffffffffffffffffffffffffffffff1673ffffffffffffffffffffffffffffffffffffffff1673ffffffffffffffffffffffffffffffffffffffff1681526020016003820160009054906101000a900473ffffffffffffffffffffffffffffffffffffffff1673ffffffffffffffffffffffffffffffffffffffff1673ffffffffffffffffffffffffffffffffffffffff16815260200160048201548152602001600582015481526020016006820160009054906101000a900460ff16151515158152505091505b808061032f906114d4565b915050610180565b50600081600001511161037f576040517f08c379a000000000000000000000000000000000000000000000000000000000815260040161037690611579565b60405180910390fd5b806040015173ffffffffffffffffffffffffffffffffffffffff163373ffffffffffffffffffffffffffffffffffffffff16146103f1576040517f08c379a00000000000000000000000000000000000000000000000000000000081526004016103e8906115e5565b60405180910390fd5b6000816060015173ffffffffffffffffffffffffffffffffffffffff16826080015160405161041f90611636565b60006040518083038185875af1925050503d806000811461045c576040519150601f19603f3d011682016040523d82523d6000602084013e610461565b606091505b50509050806104a5576040517f08c379a000000000000000000000000000000000000000000000000000000000815260040161049c90611697565b60405180910390fd5b600160006001856104b691906116b7565b815481106104c7576104c6611476565b5b906000526020600020906007020160060160006101000a81548160ff0219169083151502179055507fce085aa2cda59f2e48fad577fb84f3ead9f0c75383ce0b8e84da3d08076beafd8360405161051e91906116eb565b60405180910390a1505050565b610533611012565b60005b6000805490508110156106ed57826000828154811061055857610557611476565b5b906000526020600020906007020160000154036106da576000818154811061058357610582611476565b5b90600052602060002090600702016040518060e0016040529081600082015481526020016001820160009054906101000a900473ffffffffffffffffffffffffffffffffffffffff1673ffffffffffffffffffffffffffffffffffffffff1673ffffffffffffffffffffffffffffffffffffffff1681526020016002820160009054906101000a900473ffffffffffffffffffffffffffffffffffffffff1673ffffffffffffffffffffffffffffffffffffffff1673ffffffffffffffffffffffffffffffffffffffff1681526020016003820160009054906101000a900473ffffffffffffffffffffffffffffffffffffffff1673ffffffffffffffffffffffffffffffffffffffff1673ffffffffffffffffffffffffffffffffffffffff16815260200160048201548152602001600582015481526020016006820160009054906101000a900460ff16151515158152505091505b80806106e5906114d4565b915050610536565b50919050565b6000818154811061070357600080fd5b90600052602060002090600702016000915090508060000154908060010160009054906101000a900473ffffffffffffffffffffffffffffffffffffffff16908060020160009054906101000a900473ffffffffffffffffffffffffffffffffffffffff16908060030160009054906101000a900473ffffffffffffffffffffffffffffffffffffffff16908060040154908060050154908060060160009054906101000a900460ff16905087565b60606000805b60008054905081101561085f573373ffffffffffffffffffffffffffffffffffffffff16600082815481106107f0576107ef611476565b5b906000526020600020906007020160010160009054906101000a900473ffffffffffffffffffffffffffffffffffffffff1673ffffffffffffffffffffffffffffffffffffffff160361084c578180610848906114d4565b9250505b8080610857906114d4565b9150506107b8565b5060008167ffffffffffffffff81111561087c5761087b611706565b5b6040519080825280602002602001820160405280156108b557816020015b6108a2611012565b81526020019060019003908161089a5790505b5090506000915060005b600080549050811015610aec573373ffffffffffffffffffffffffffffffffffffffff16600082815481106108f7576108f6611476565b5b906000526020600020906007020160010160009054906101000a900473ffffffffffffffffffffffffffffffffffffffff1673ffffffffffffffffffffffffffffffffffffffff1603610ad9576000818154811061095857610957611476565b5b90600052602060002090600702016040518060e0016040529081600082015481526020016001820160009054906101000a900473ffffffffffffffffffffffffffffffffffffffff1673ffffffffffffffffffffffffffffffffffffffff1673ffffffffffffffffffffffffffffffffffffffff1681526020016002820160009054906101000a900473ffffffffffffffffffffffffffffffffffffffff1673ffffffffffffffffffffffffffffffffffffffff1673ffffffffffffffffffffffffffffffffffffffff1681526020016003820160009054906101000a900473ffffffffffffffffffffffffffffffffffffffff1673ffffffffffffffffffffffffffffffffffffffff1673ffffffffffffffffffffffffffffffffffffffff16815260200160048201548152602001600582015481526020016006820160009054906101000a900460ff161515151581525050828481518110610abf57610abe611476565b5b60200260200101819052508280610ad5906114d4565b9350505b8080610ae4906114d4565b9150506108bf565b50809250505090565b60606000805b600080549050811015610ba2573373ffffffffffffffffffffffffffffffffffffffff1660008281548110610b3357610b32611476565b5b906000526020600020906007020160020160009054906101000a900473ffffffffffffffffffffffffffffffffffffffff1673ffffffffffffffffffffffffffffffffffffffff1603610b8f578180610b8b906114d4565b9250505b8080610b9a906114d4565b915050610afb565b5060008167ffffffffffffffff811115610bbf57610bbe611706565b5b604051908082528060200260200182016040528015610bf857816020015b610be5611012565b815260200190600190039081610bdd5790505b5090506000915060005b600080549050811015610e2f573373ffffffffffffffffffffffffffffffffffffffff1660008281548110610c3a57610c39611476565b5b906000526020600020906007020160020160009054906101000a900473ffffffffffffffffffffffffffffffffffffffff1673ffffffffffffffffffffffffffffffffffffffff1603610e1c5760008181548110610c9b57610c9a611476565b5b90600052602060002090600702016040518060e0016040529081600082015481526020016001820160009054906101000a900473ffffffffffffffffffffffffffffffffffffffff1673ffffffffffffffffffffffffffffffffffffffff1673ffffffffffffffffffffffffffffffffffffffff1681526020016002820160009054906101000a900473ffffffffffffffffffffffffffffffffffffffff1673ffffffffffffffffffffffffffffffffffffffff1673ffffffffffffffffffffffffffffffffffffffff1681526020016003820160009054906101000a900473ffffffffffffffffffffffffffffffffffffffff1673ffffffffffffffffffffffffffffffffffffffff1673ffffffffffffffffffffffffffffffffffffffff16815260200160048201548152602001600582015481526020016006820160009054906101000a900460ff161515151581525050828481518110610e0257610e01611476565b5b60200260200101819052508280610e18906114d4565b9350505b8080610e27906114d4565b915050610c02565b50809250505090565b60003411610e4557600080fd5b60006040518060e001604052806001600080549050610e649190611735565b81526020013373ffffffffffffffffffffffffffffffffffffffff1681526020018473ffffffffffffffffffffffffffffffffffffffff1681526020018373ffffffffffffffffffffffffffffffffffffffff1681526020013481526020014381526020016000151581525090806001815401808255809150506001900390600052602060002090600702016000909190919091506000820151816000015560208201518160010160006101000a81548173ffffffffffffffffffffffffffffffffffffffff021916908373ffffffffffffffffffffffffffffffffffffffff16021790555060408201518160020160006101000a81548173ffffffffffffffffffffffffffffffffffffffff021916908373ffffffffffffffffffffffffffffffffffffffff16021790555060608201518160030160006101000a81548173ffffffffffffffffffffffffffffffffffffffff021916908373ffffffffffffffffffffffffffffffffffffffff1602179055506080820151816004015560a0820151816005015560c08201518160060160006101000a81548160ff02191690831515021790555050505050565b6040518060e0016040528060008152602001600073ffffffffffffffffffffffffffffffffffffffff168152602001600073ffffffffffffffffffffffffffffffffffffffff168152602001600073ffffffffffffffffffffffffffffffffffffffff16815260200160008152602001600081526020016000151581525090565b600080fd5b6000819050919050565b6110ab81611098565b81146110b657600080fd5b50565b6000813590506110c8816110a2565b92915050565b6000602082840312156110e4576110e3611093565b5b60006110f2848285016110b9565b91505092915050565b61110481611098565b82525050565b600073ffffffffffffffffffffffffffffffffffffffff82169050919050565b60006111358261110a565b9050919050565b6111458161112a565b82525050565b60008115159050919050565b6111608161114b565b82525050565b60e08201600082015161117c60008501826110fb565b50602082015161118f602085018261113c565b5060408201516111a2604085018261113c565b5060608201516111b5606085018261113c565b5060808201516111c860808501826110fb565b5060a08201516111db60a08501826110fb565b5060c08201516111ee60c0850182611157565b50505050565b600060e0820190506112096000830184611166565b92915050565b61121881611098565b82525050565b6112278161112a565b82525050565b6112368161114b565b82525050565b600060e082019050611251600083018a61120f565b61125e602083018961121e565b61126b604083018861121e565b611278606083018761121e565b611285608083018661120f565b61129260a083018561120f565b61129f60c083018461122d565b98975050505050505050565b600081519050919050565b600082825260208201905092915050565b6000819050602082019050919050565b60e0820160008201516112ed60008501826110fb565b506020820151611300602085018261113c565b506040820151611313604085018261113c565b506060820151611326606085018261113c565b50608082015161133960808501826110fb565b5060a082015161134c60a08501826110fb565b5060c082015161135f60c0850182611157565b50505050565b600061137183836112d7565b60e08301905092915050565b6000602082019050919050565b6000611395826112ab565b61139f81856112b6565b93506113aa836112c7565b8060005b838110156113db5781516113c28882611365565b97506113cd8361137d565b9250506001810190506113ae565b5085935050505092915050565b60006020820190508181036000830152611402818461138a565b905092915050565b6114138161112a565b811461141e57600080fd5b50565b6000813590506114308161140a565b92915050565b6000806040838503121561144d5761144c611093565b5b600061145b85828601611421565b925050602061146c85828601611421565b9150509250929050565b7f4e487b7100000000000000000000000000000000000000000000000000000000600052603260045260246000fd5b7f4e487b7100000000000000000000000000000000000000000000000000000000600052601160045260246000fd5b60006114df82611098565b91507fffffffffffffffffffffffffffffffffffffffffffffffffffffffffffffffff8203611511576115106114a5565b5b600182019050919050565b600082825260208201905092915050565b7f5472616e73616374696f6e206e6f7420666f756e640000000000000000000000600082015250565b600061156360158361151c565b915061156e8261152d565b602082019050919050565b6000602082019050818103600083015261159281611556565b9050919050565b7f4f6e6c792074686520617262697465722063616e20617070726f766520697400600082015250565b60006115cf601f8361151c565b91506115da82611599565b602082019050919050565b600060208201905081810360008301526115fe816115c2565b9050919050565b600081905092915050565b50565b6000611620600083611605565b915061162b82611610565b600082019050919050565b600061164182611613565b9150819050919050565b7f4661696c656420746f2073656e64204574686572000000000000000000000000600082015250565b600061168160148361151c565b915061168c8261164b565b602082019050919050565b600060208201905081810360008301526116b081611674565b9050919050565b60006116c282611098565b91506116cd83611098565b92508282039050818111156116e5576116e46114a5565b5b92915050565b6000602082019050611700600083018461120f565b92915050565b7f4e487b7100000000000000000000000000000000000000000000000000000000600052604160045260246000fd5b600061174082611098565b915061174b83611098565b9250828201905080821115611763576117626114a5565b5b9291505056fea2646970667358221220da417f757be19cee08ea29e95db87fef450e825e8c079ccbfa2578adabef247f64736f6c63430008110033",
  "linkReferences": {},
  "deployedLinkReferences": {}
}